:100000000C9438000C9455000C9455000C94550039
:100010000C9455000C9455000C9455000C9455000C
:100020000C9455000C9455000C9455000C945500FC
:100030000C9455000C9455000C9455000C945500EC
:100040000C94AB020C9455000C9455000C94630274
:100050000C9455000C9487020C9455000C94550098
:100060000C9455000C9455000C94CF020C94550040
:1000700011241FBECFEFD4E0DEBFCDBF11E0A0E062
:10008000B1E0E4EDF8E002C005900D92A031B107B7
:10009000D9F711E0A0E1B1E001C01D92AA36B10785
:1000A000E1F70E9442030C9468040C94000003C022
:1000B00000C000C081508823D9F7089507C0E7EE3B
:1000C000F3E03197F1F700C0000081508823B9F7C1
:1000D0000895FC012FEF3FEF41E050EA12C08191FB
:1000E00090E02827392778E0C9019695879520FF69
:1000F00004C09C012427352701C09C017150A1F741
:100100006150662361F7C9010895FC0190931101C4
:1001100080931001A381B48111964C91119781E0D5
:1001200090E09C01028002C0220F331F0A94E2F784
:100130002095242311962C93A381B48112962C919F
:100140001297028002C0880F991F0A94E2F78095E7
:10015000822312968C930780F085E02D0995E0911B
:100160001001F09111010384F485E02D0995E091CF
:100170001001F091110181810580F681E02D81113E
:1001800081E00995E0911001F09111011786108A24
:100190000895809114019091150101969093150195
:1001A00080931401809114019091150128E080370B
:1001B000920779F410921201109215011092140115
:1001C000E0911001F0911101108A0384F485E02D73
:1001D0000995089590911201933009F04FC08091D4
:1001E0001301803208F0C3C020916601309167018D
:1001F000409168015091690180911401909115011D
:100200008A32910558F0609114017091150181E0D6
:1002100090E0A0E0B0E06F32710518F080E090E06F
:10022000DC0160911301062E04C0880F991FAA1FDC
:10023000BB1F0A94D2F7822B932BA42BB52B809350
:10024000660190936701A0936801B09369016F5FA5
:100250006093130110921501109214018091130103
:10026000803209F084C010921201E0911001F091E7
:10027000110181E087871092130108959091120176
:100280009923D1F48130C1F480931201E0911001DF
:10029000F09111010580F681E02D82E00995E09151
:1002A0001001F09111010184F285E02D0995109261
:1002B0001501109214010895909112019130F9F4F2
:1002C0002091140130911501243B3105C0F020919B
:1002D0001401309115012B3B310588F4882379F402
:1002E00082E080931201E0911001F091110181816F
:1002F0000580F681E02D811181E0099508959091A6
:1003000012019230A1F520911401309115012C3D7C
:10031000310568F1209114013091150191E02531EA
:10032000390728F5813019F5209114013091150114
:100330002C3D310578F02091140130911501253EB6
:10034000310540F410921201E0911001F091110179
:10035000808B0895E0911001F09111011786108AA9
:1003600083E08093120110921501109214010895F8
:100370009095981711F4892F089580E00895E091E1
:100380001001F0911101A381B4812C9181E090E0E2
:10039000028002C0880F991F0A94E2F72823818106
:1003A000882329F481E0222331F080E0089581E060
:1003B000222309F480E008950E94BF01E09110011A
:1003C000F09111019081992311F40E94EA0008959F
:1003D000E0911001F09111011786109266011092C0
:1003E000670110926801109269010895DF92EF92FF
:1003F000FF920F931F93CF93DF93EC017B018091CA
:10040000660190916701A0916801B0916901009720
:10041000A105B10561F1DFB6F894009110011091CA
:100420001101F8018785813011F0DFBE20C0809175
:10043000660190916701A0916801B09169010E94E5
:10044000B8018883609166017091670180916801AD
:10045000909169010E94B801F7018083F8018089B9
:10046000882311F40E94E801DFBE80E001C081E032
:10047000DF91CF911F910F91FF90EF90DF90089542
:100480004798439A813041F0813018F0823049F426
:1004900006C0419A40980895419A409A089541981B
:1004A0004098089583B7886083BF83B7816083BF16
:1004B00088EC81BF089589B7816089BF089589B7A5
:1004C0008E7F89BF08951F920F920FB60F9211244D
:1004D0002F933F934F935F936F937F938F939F934C
:1004E000AF93BF93EF93FF930E94F303FF91EF91BC
:1004F000BF91AF919F918F917F916F915F914F913C
:100500003F912F910F900FBE0F901F9018951F9243
:100510000F920FB60F9211242F933F934F935F9337
:100520006F937F938F939F93AF93BF93EF93FF93BB
:100530000E94D903FF91EF91BF91AF919F918F914D
:100540007F916F915F914F913F912F910F900FBECF
:100550000F901F9018951F920F920FB60F921124B3
:100560002F933F934F935F936F937F938F939F93BB
:10057000AF93BF93EF93FF930E94C900FF91EF9158
:10058000BF91AF919F918F917F916F915F914F91AB
:100590003F912F910F900FBE0F901F9018951F92B3
:1005A0000F920FB60F9211242F933F934F935F93A7
:1005B0006F937F938F939F93AF93BF93EF93FF932B
:1005C0000E94DC01FF91EF91BF91AF919F918F91BC
:1005D0007F916F915F914F913F912F910F900FBE3F
:1005E0000F901F9018951F931092160110921701EB
:1005F00012E01093180186E390E090931A01809323
:10060000190180E492E090931C0180931B0182E524
:1006100092E090931E0180931D018BE592E09093F0
:10062000200180931F018FE592E090932201809337
:100630002101109224011092230186E191E00E9491
:1006400085001092270181E08093280110932901F1
:1006500087E291E00E940C04B99AC19A78941F91A4
:100660000895C1988EE10E945E00C19A8EE10E94B9
:100670005E00C1988EE10E945E00C19A8EE10E94E8
:100680005E0008950E94F302CAE4D1E083E291E0A3
:1006900064E271E00E94F60180912301803411F040
:1006A0008830A1F78091240180934A01198280E06B
:1006B00069E471E00E94BF030E943103109224019B
:1006C00010922301E3CF0CC080915A01882311F0CE
:1006D0005E9B03C00E94510409C080E00E94330465
:1006E00085E091E00E941804882371F7E091580199
:1006F000F09159018081882311F4929A089592987B
:1007000008951F93CF93DF93EC01162F24C080919F
:100710005D01882391F480915A01882371F482E06D
:1007200080935A01E0915801F09159018081813004
:1007300009F4929A0E94510414C080E00E9433048C
:10074000882349F410925C0110925B0110925D01C4
:100750000E94630310C08AE091E00E94180488237D
:10076000B1F68FB7F894D0935C01C0935B011093FE
:100770005D01559A8FBFDF91CF911F910895CF935F
:10078000DF93EB01E0915801F0915901E80FF11D61
:100790002281FB012193CF0162E00E9469009C83CA
:1007A0008B83CE0165E00E94810382E0DF91CF91CF
:1007B000089580915D01815080935D01E0915B011E
:1007C000F0915C0181918CB9F0935C01E0935B0145
:1007D0005E9A80915D01882329F40E946303109240
:1007E0005A0155980895809160018150809360016D
:1007F000E0915E01F0915F018CB18193F0935F0114
:10080000E0935E0180916001882329F410925A01DF
:100810000E9463035798089590935901809358015B
:100820000E945804579855988A9A0E946303089525
:10083000FC01909364018093630180916501813094
:1008400021F41092650180E00895808191810097E4
:1008500041F410926501828193819183808381E0CC
:10086000089581E00895E0916301F0916401208191
:10087000318121503040318320832115310529F405
:1008800081E08093650180E00895882329F48481C4
:100890000E945E0081E0089584810E94570081E0FB
:1008A0000895E0916301F09164011182108208952E
:1008B0009FB7F89480B580BD89B1896189B99FBF20
:1008C00059988AB188698AB980B5826880BD0895CF
:0408D000F894FFCFCA
:1008D4000A0032000032000500003200050000006A
:00000001FF
